S01000004156525F707261632E7372656326
S11300000C9434000C943E000C943E000C943E007E
S11300100C943E000C943E000C943E000C943E0064
S11300200C943E000C943E000C943E000C943E0054
S11300300C943E000C943E000C943E000C943E0044
S11300400C943E000C943E000C943E000C943E0034
S11300500C943E000C943E000C943E000C943E0024
S11300600C943E000C943E0011241FBECFEFD8E048
S1130070DEBFCDBF0E947B000C94B7000C9400003F
S1130080E0E8F0E0808182608083A1E8B0E08C91B8
S113009088618C938C9182608C9380E49CE990932A
S11300A087008093860080818068808384B1826029
S11300B084B90895E0ECF0E0808182608083E5EC0F
S11300C0F0E0808180838FEC8093C400E2ECF0E068
S11300D0808186608083E1ECF0E0808180618083B0
S11300E080818860808308958091C0008823E4F72C
S11300F08091C60008950E945A000E9440000E9408
S113010074008236A1F0833611F18136D1F724E1EF
S113011035E030938900209388002FEF33ED90E38E
S1130120215030409040E1F700C00000EACF28EBB6
S11301303BE030938900209388002FEF33ED90E368
S1130140215030409040E1F700C00000DACF2CE5A8
S113015032E130938900209388002FEF33ED90E350
S1130160215030409040E1F700C00000CACFF8941D
S1050170FFCFBB
S9030000FC
