:100000000C9434000C9449000C9449000C94490061
:100010000C9449000C9449000C9449000C9449003C
:100020000C9449000C9449000C9449000C9449002C
:100030000C9449000C9449000C9449000C9449001C
:100040000C9449000C9449000C9449000C9449000C
:100050000C9449000C9449000C9449000C944900FC
:100060000C9449000C94490011241FBECFEFD8E036
:10007000DEBFCDBF11E0A0E0B1E0ECEDF2E002C0E8
:1000800005900D92A830B107D9F70E944B000C944F
:100090006C010C940000CF93DF93CDB7DEB764976B
:1000A0000FB6F894DEBF0FBECDBF1A821982FE01D3
:1000B000339682E1DF011D928A95E9F70E943D01A6
:1000C0000E94DC000E945501182F898360E071E0D6
:1000D000CE0101960E946301892B99F484E690E099
:1000E0000E94F700BFEF23ED80E3B1502040804035
:1000F000E1F700C00000812F0E945C010E940D0109
:10010000E1CF62E071E0CE0101960E946301892B8C
:1001100099F484E690E00E9423019FEFA3EDB0E301
:100120009150A040B040E1F700C00000812F0E9434
:100130005C010E940D01C6CF64E071E0CE01019622
:100140000E946301892B99F484E690E00E943101BA
:100150002FEF83ED90E3215080409040E1F700C005
:100160000000812F0E945C010E940D01ABCF66E070
:1001700071E0CE0101960E946301892B31F40E9447
:100180000D01812F0E945C019DCF0E943D01AFEFC8
:10019000B3EC29E0A150B0402040E1F700C00000DE
:1001A0000E94DC008FEF93ECA9E081509040A040CA
:1001B000E1F700C0000086CF84B1896084B98AB1BC
:1001C0008C6F8AB993E894BD82E085BD9093B000AE
:1001D0008093B1008BB188668BB985B1886085B991
:1001E0008BB18B768BB985B18E7F85B908959BB124
:1001F00094699BB995B1916095B995B1977F95B97F
:100200009BB198609BB98093B3009BB19F7B9BB9D6
:100210009BB190629BB987BD089585B1877F85B9F1
:100220001092B3008BB18F7B8BB917BC8BB18866F2
:100230008BB985B1886085B98BB18B768BB985B167
:100240008E7F85B908959BB190689BB995B19160F7
:1002500095B99BB19F7B9BB99BB190629BB987BDC0
:1002600008959BB194619BB995B1977F95B99BB166
:1002700098609BB98093B3000895E0ECF0E0808132
:10028000826080831092C5008FEC8093C400E2EC02
:10029000F0E0808186608083E1ECF0E08081806125
:1002A000808380818860808308958091C000882346
:1002B000E4F78091C60008959091C00095FFFCCFAF
:1002C0008093C6000895FB01DC018D910190801997
:0C02D0000110D9F3990B0895F894FFCFAA
:0802DC0067006C007200730062
:00000001FF
